:020000040800F2
:1000000000400020B9580008CD4E0008D74E000827
:1000100000000000000000000000000000000000E0
:10002000000000000000000000000000DD4E00089D
:100030000000000000000000E74E0008F14E00083C
:100040000959000809590008095900080959000808
:1000500009590008095900080959000809590008F8
:1000600009590008095900080959000809590008E8
:1000700009590008095900080959000809590008D8
:1000800009590008095900080959000809590008C8
:1000900009590008095900080959000809590008B8
:1000A00009590008095900080959000809590008A8
:1000B000095900080959000809590008014F0008AA
:1000C00010B5064C2378002B07D1054B002B02D02E
:1000D000044800E000BF0123237010BD0C01002084
:1000E0000000000064590008044B10B5002B03D039
:1000F0000349044800E000BF10BDC04600000000F6
:100100001001002064590008002243088B4274D378
:1001100003098B425FD3030A8B4244D3030B8B4208
:1001200028D3030C8B420DD3FF22090212BA030C11
:100130008B4202D31212090265D0030B8B4219D3F2
:1001400000E0090AC30B8B4201D3CB03C01A524112
:10015000830B8B4201D38B03C01A5241430B8B425A
:1001600001D34B03C01A5241030B8B4201D30B0343
:10017000C01A5241C30A8B4201D3CB02C01A52416A
:10018000830A8B4201D38B02C01A5241430A8B422D
:1001900001D34B02C01A5241030A8B4201D30B0216
:1001A000C01A5241CDD2C3098B4201D3CB01C01A30
:1001B000524183098B4201D38B01C01A524143093A
:1001C0008B4201D34B01C01A524103098B4201D328
:1001D0000B01C01A5241C3088B4201D3CB00C01A95
:1001E000524183088B4201D38B00C01A524143080D
:1001F0008B4201D34B00C01A5241411A00D2014632
:10020000524110467047FFE701B5002000F006F8A4
:1002100002BDC0460029F7D076E770477047C04658
:1002200080B500AF074B1A68064B10210A431A60CD
:10023000002000F009F804F025FE00231800BD4658
:1002400080BDC0460020024080B582B000AF78601B
:1002500003F0DCF80200FA2399001000FFF754FFC6
:100260000300180000F00DF9796801235B420022B9
:10027000180000F0E1F800231800BD4602B080BD70
:1002800080B500AF034B1B685A1C024B1A60C04676
:10029000BD4680BD4001002080B500AF024B1B6809
:1002A0001800BD4680BDC0464001002080B584B026
:1002B00000AF7860FFF7F0FF0300BB607B68FB6076
:1002C000FB68013302D0FB680133FB60C046FFF7D7
:1002D000E3FF0200BB68D31AFA689A42F7D8C04617
:1002E000BD4604B080BD000080B582B000AF020002
:1002F000FB1D1A70FB1D1B781A001F231A40044BAC
:10030000012191400A001A60C046BD4602B080BD7E
:1003100000E100E090B583B000AF02003960FB1D42
:100320001A70FB1D1B787F2B32D92F4AFB1D1B78BF
:1003300019000F230B40083B9B0806339B00D31882
:1003400004331B68FA1D1278110003220A40D20000
:10035000FF2191400A00D2431A4011003B689B01E3
:10036000FF221A40FB1D1B78180003230340DB000B
:100370009A401D48FB1D1B781C000F232340083B9F
:100380009B080A4306339B00C31804331A6027E016
:10039000164AFB1D1B785BB29B08C0339B009B5821
:1003A000FA1D1278110003220A40D200FF21914069
:1003B0000A00D2431A4011003B689B01FF221A40F9
:1003C000FB1D1B78180003230340DB009A400748FD
:1003D000FB1D1B785BB29B080A43C0339B001A507D
:1003E000C046BD4603B090BD00ED00E000E100E076
:1003F00080B582B000AF78607B68013B0C4A9342C5
:1004000001D9012310E00B4B7A68013A5A600123AD
:100410005B4203211800FFF77DFF064B00229A6024
:10042000044B07221A6000231800BD4602B080BDAD
:10043000FFFFFF0010E000E080B584B000AFB960BE
:100440007A600F217B18021C1A70BA687B181B781F
:100450005BB211001800FFF75DFFC046BD4604B057
:1004600080BD80B582B000AF0200FB1D1A70FB1D7D
:100470001B785BB21800FFF737FFC046BD4602B0DD
:1004800080BD80B582B000AF78607B681800FFF750
:10049000AFFF03001800BD4602B080BD80B586B036
:1004A00000AF7860396000237B610023FB6000238C
:1004B0003B6155E13B681B6801217A6991400A0064
:1004C0001340FB60FB68002B00D146E13B685B6892
:1004D000022B03D03B685B68122B23D17B69DA08BF
:1004E0007B6808329200D3583B617B690722134036
:1004F0009B000F229A401300DA433B6913403B6193
:100500003B681A697B6907210B409B009A401300E6
:100510003A6913433B617B69DA087B6808329200D1
:100520003969D1507B681B683B617B695B000322A2
:100530009A401300DA433B6913403B613B685B68B8
:1005400003221A407B695B009A4013003A69134307
:100550003B617B683A691A603B685B68012B0BD092
:100560003B685B68022B07D03B685B68112B03D0AC
:100570003B685B68122B30D17B689B683B617B6971
:100580005B0003229A401300DA433B6913403B614E
:100590003B68DA687B695B009A4013003A69134351
:1005A0003B617B683A699A607B685B683B610122CA
:1005B0007B699A401300DA433B6913403B613B6817
:1005C0005B681B0901221A407B699A4013003A6953
:1005D00013433B617B683A695A607B68DB683B6127
:1005E0007B695B0003229A401300DA433B691340A6
:1005F0003B613B689A687B695B009A4013003A69EB
:1006000013433B617B683A69DA603B685A68802330
:100610005B05134000D1A0E0574B9A69564B01216E
:100620000A439A61544B9B6901221340BB60BB682B
:10063000524A7B699B0802339B009B583B617B6954
:10064000032213409B000F229A401300DA433B69B8
:1006500013403B617A689023DB059A4219D07B688E
:10066000474A934213D07B68464A93420DD07B6839
:10067000454A934207D07B68444A934201D1042300
:1006800008E0052306E0032304E0022302E001233F
:1006900000E000237A6903210A40920093403A69FE
:1006A00013433B6135497B699B0802339B003A69E0
:1006B0005A50374B1B683B61FB68DA433B69134078
:1006C0003B613B685A6880235B02134003D03A6960
:1006D000FB6813433B612E4B3A691A602C4B5B68F5
:1006E0003B61FB68DA433B6913403B613B685A68F6
:1006F00080239B02134003D03A69FB6813433B619C
:10070000234B3A695A60224B9B683B61FB68DA4392
:100710003B6913403B613B685A6880235B0313408D
:1007200003D03A69FB6813433B61194B3A699A60FD
:10073000174BDB683B61FB68DA433B6913403B6165
:100740003B685A6880239B03134003D03A69FB68D7
:1007500013433B610E4B3A69DA607B6901337B617D
:100760003B681A687B69DA40131E00D0A2E6C046D7
:10077000BD4606B080BDC0460010024000000140EA
:100780000004004800080048000C00480010004821
:100790000004014080B584B000AF78600A00BB1C43
:1007A0001A807B681B69BA1C1288134004D00F237F
:1007B000FB1801221A7003E00F23FB1800221A70A5
:1007C0000F23FB181B781800BD4604B080BD80B510
:1007D00082B000AF786008001100BB1C021C1A80B8
:1007E0007B1C0A1C1A707B1C1B78002B04D0BB1CC2
:1007F0001A887B689A6103E0BB1C1A887B689A623E
:10080000C046BD4602B080BD90B585B000AF7860EF
:100810000023FB600023BB607B68002B01D1012318
:10082000DEE07A68EA23FF33D35CDBB2002B08D129
:100830007A68F4235B000021D1547B68180004F02F
:10084000D7FB7A68EA23FF330321D1540023FB60EE
:1008500043E07968FA6829201300DB009B1A9B00AB
:10086000CB181B1801221A70FB68DCB27968FA6891
:1008700028201300DB009B1A9B00CB181B18221C9E
:100880001A707968FA682B201300DB009B1A9B0012
:10089000CB181B1800221A707968FA681300DB0065
:1008A0009B1A9B00CB18343300221A607968FA68CF
:1008B0001300DB009B1A9B00CB18383300221A6010
:1008C0007968FA681300DB009B1A9B00CB183C3355
:1008D00000221A60FB680133FB607B685B68FA6882
:1008E0009A42B6D30023FB604EE07868FA680A2388
:1008F000FF3319001300DB009B1A9B00C3185B1821
:1009000000221A70FB68DCB27868FA688423590008
:100910001300DB009B1A9B00C3185B18221C1A7083
:100920007868FA680C23FF3319001300DB009B1A68
:100930009B00C3185B1800221A707868FA688A2333
:1009400059001300DB009B1A9B00C3185B180022A0
:100950001A607868FA688C2359001300DB009B1A30
:100960009B00C3185B1800221A607868FA688E230F
:1009700059001300DB009B1A9B00C3185B18002270
:100980001A60FB680133FB607B685B68FA689A4217
:10099000ABD37B681B684022012199527B681B689E
:1009A0004022002199527B681B6844220021995201
:1009B0007B681B68502200219952BF231B02BB6039
:1009C0007B681B68BA6891B2402299527B682422E6
:1009D000002199547A68EA23FF330121D15400237E
:1009E0001800BD4605B090BD80B582B000AF7860FC
:1009F0007B681B6858229B5A9AB27B681B68054922
:100A00000A4391B25822995200231800BD4602B001
:100A100080BDC0460080FFFF80B584B000AF786025
:100A20000023FB607B681B6844229B5A9BB21A0020
:100A300080231B021A4080231B029A4203D17B6849
:100A4000180001F037FC7B681B6844229B5A9BB25C
:100A50001A008023DB001A408023DB009A4214D165
:100A60007B681B6844229B5A9AB27B681B68774953
:100A70000A4091B2442299527B68180004F041FB6D
:100A80007B680021180000F0EFF87B681B684422A7
:100A90009B5A9BB21A008023DB011A408023DB01A2
:100AA0009A420BD17B681B6844229B5A9AB27B689E
:100AB0001B6867490A4091B2442299527B681B68BF
:100AC00044229B5A9BB21A0080239B011A40802328
:100AD0009B019A420BD17B681B6844229B5A9AB2B5
:100AE0007B681B685B490A4091B2442299527B683B
:100AF0001B6844229B5A9BB21A0080235B011A4058
:100B000080235B019A4224D17B681B6840229B5A58
:100B10009AB27B681B6804218A4391B240229952A1
:100B2000BD231B02FB607B681B68FA6891B2402200
:100B300099527B68180004F025FB7B681B684422EF
:100B40009B5A9AB27B681B6843490A4091B244227F
:100B500099527B681B6844229B5A9BB21A008023DF
:100B60001B011A4080231B019A4234D17B681B6809
:100B700044229B5A9AB27B681B6838490A4091B25A
:100B8000442299527B681B6840229B5A9AB27B6828
:100B90001B6808210A4391B2402299527B681B6866
:100BA00040229B5A9AB27B681B6804210A4391B287
:100BB000402299527B681B6844229B5A9BB21A00C0
:100BC00080235B011A4080235B019A4203D07B683B
:100BD000180004F0BBFA7B681B6844229B5A9BB246
:100BE0001A0080239B001A4080239B009A420FD159
:100BF0007B681B6844229B5A9AB27B681B68184921
:100C00000A4091B2442299527B68180004F06AFAB3
:100C10007B681B6844229B5A9BB21A0080235B00AE
:100C20001A4080235B009A420BD17B681B684422E8
:100C30009B5A9AB27B681B680A490A4091B24422C7
:100C40009952C046BD4604B080BDC046FFFBFFFFC1
:100C5000FFBFFFFFFFDFFFFFFFEFFFFFFFF7FFFF1C
:100C6000FFFDFFFFFFFEFFFF80B582B000AF7860A1
:100C70000A00FB1C1A707A68F4235B00D35C012B1A
:100C800001D1022319E07A68F4235B000121D154D9
:100C9000FB1C1B78002B05D17B681B684C22802134
:100CA000995204E07B68FA1C242112785A547A681D
:100CB000F4235B000021D15400231800BD4602B08C
:100CC00080BD000090B587B000AF78600C001000C8
:100CD0001900FB1C221C1A703B00021C1A80BB1C52
:100CE0000A1C1A701123FB1800221A70FB1C1B78B7
:100CF0005BB2002B0CDAFB1C1B787F221A4013001E
:100D0000DB009B1A9B0028337A68D3187B610CE0C8
:100D1000FB1C1B787F221A401300DB009B1A9B00F0
:100D20000933FF337A68D3187B61FB1C1B787F2261
:100D30001340DAB27B691A70FB1C1B785BB2DBB222
:100D4000DB09DBB21A007B695A703B001A887B69A9
:100D5000DA607B69BA1C1278DA707A68F4235B0077
:100D6000D35C012B01D1022332E37A68F4235B00C8
:100D70000121D1547B69DB78012B50D002DC002BA0
:100D800005D064E0022B1AD0032B30D05FE07B68E3
:100D90001B681A007B691B789B00D3181B889BB2C9
:100DA000BF4A13409AB27B681B6819007B691B78A5
:100DB0009B00CB18BB490A4392B21A8047E07B687C
:100DC0001B681A007B691B789B00D3181B889BB299
:100DD000B34A13409AB27B681B6819007B691B7881
:100DE0009B00CB18B0490A4392B21A802FE07B686F
:100DF0001B681A007B691B789B00D3181B889BB269
:100E0000A74A13409AB27B681B6819007B691B785C
:100E10009B00CB18A5490A4392B21A8017E07B6861
:100E20001B681A007B691B789B00D3181B889BB238
:100E30009B4A13409AB27B681B6819007B691B7838
:100E40009B00CB189A490A4392B21A80C0467B682D
:100E50001B681A007B691B789B00D3181B889BB208
:100E6000944A13409AB27B691B789BB213439AB29F
:100E70007B681B6819007B691B789B00CB188A492B
:100E80000A4392B21A807B699B7A002B00D021E141
:100E90007B695B78002B59D07B699B885B0899B292
:100EA0007B681B6850229B5A9BB21A007B691B7897
:100EB000DB00D3181A007B681B68D3188022D2008D
:100EC000944663441A000B1CDB189BB213807B68AA
:100ED0001B681A007B691B789B00D3181B889BB288
:100EE0001A004023134016D07B681B681A007B69E8
:100EF0001B789B00D3181B889BB26E4A13409AB292
:100F00007B681B6819007B691B789B00CB186A49BA
:100F10000A4392B21A807B681B681A007B691B78AF
:100F20009B00D3181B889BB2644A13409CB22023B9
:100F300063409CB27B681B681A007B691B789B002E
:100F4000D318594A224392B21A8039E27B699B88AE
:100F50005B0899B27B681B6850229B5A9BB21A00AF
:100F60007B691B78DB00D3181A007B681B68D318D9
:100F7000534A944663441A000B1CDB189BB213803F
:100F80007B681B6850229B5A9BB21A007B691B78B6
:100F9000DB00D3181A007B681B68D318494A9446B3
:100FA0006344FB607B69DB683E2B1BD97B69DB6894
:100FB0005A091223FB181A807B69DB681F22134031
:100FC00005D112217B181A887B18013A1A80122346
:100FD000FB181B889B029BB23B4A13439AB2FB68E7
:100FE0001A8017E07B69DB685A081223FB181A8005
:100FF0007B69DB680122134005D012217B181A8817
:101000007B1801321A801223FB181B889B029AB2AC
:10101000FB681A807B681B681A007B691B789B0041
:10102000D3181B889BB21A008023DB01134016D013
:101030007B681B681A007B691B789B00D3181B8890
:101040009BB21C4A13409AB27B681B6819007B69EB
:101050001B789B00CB181D490A4392B21A807B680B
:101060001B681A007B691B789B00D3181B889BB2F6
:10107000174A13409CB280235B0163409CB28023DB
:101080009B0163409CB27B681B681A007B691B78DC
:101090009B00D318044A224392B21A8090E1C046C2
:1010A0000F0900008082FFFF8080FFFF8086FFFF26
:1010B0008084FFFF0F0F0000C080FFFFBF8FFFFF86
:1010C00004040000060400000080FFFF80C0FFFF52
:1010D0008FBFFFFF7B681B681A007B691B789B0032
:1010E000D3181B889BB2BC4A13409AB27B681B681A
:1010F00019007B691B789B00CB18B8490A4392B250
:101100001A807B69DB885B0899B27B681B68502278
:101110009B5A9BB21A007B691B78DB00D3181A001C
:101120007B681B68D3188022D200944663441A005F
:101130000B1CDB189BB213807B691B895B0899B27F
:101140007B681B6850229B5A9BB21A007B691B78F4
:10115000DB00D3181A007B681B68D318A04A94469A
:1011600063441A000B1CDB189BB213807B695B780D
:10117000002B00D096E07B681B681A007B691B7807
:101180009B00D3181B889BB21A008023DB011340FD
:1011900016D07B681B681A007B691B789B00D318EC
:1011A0001B889BB28F4A13409AB27B681B68190058
:1011B0007B691B789B00CB188B490A4392B21A803B
:1011C0007B681B681A007B691B789B00D3181B88FF
:1011D0009BB21A004023134016D07B681B681A008C
:1011E0007B691B789B00D3181B889BB27D4A1340F8
:1011F0009AB27B681B6819007B691B789B00CB182F
:101200007A490A4392B21A807B681B681A007B698C
:101210001B789B00D3181B889BB2724A13409AB26A
:101220007B681B6819007B691B789B00CB186F4992
:101230000A4392B21A807B681B681A007B691B788C
:101240009B00D3181B889BB2694A13409CB2802331
:101250005B0163409CB280239B0163409CB27B682E
:101260001B681A007B691B789B00D318614A2243D4
:1012700092B21A807B681B681A007B691B789B00FE
:10128000D3181B889BB25C4A13409CB27B681B68D6
:101290001A007B691B789B00D318564A224392B2EE
:1012A0001A808DE07B681B681A007B691B789B00A5
:1012B000D3181B889BB21A008023DB01134016D081
:1012C0007B681B681A007B691B789B00D3181B88FE
:1012D0009BB2444A13409AB27B681B6819007B6931
:1012E0001B789B00CB1840490A4392B21A807B6856
:1012F0001B681A007B691B789B00D3181B889BB264
:101300001A004023134016D07B681B681A007B69C3
:101310001B789B00D3181B889BB2324A13409AB2A9
:101320007B681B6819007B691B789B00CB182F49D1
:101330000A4392B21A807B681B681A007B691B788B
:101340009B00D3181B889BB2264A13409AB27B6835
:101350001B6819007B691B789B00CB1822490A4344
:1013600092B21A807B681B681A007B691B789B000D
:10137000D3181B889BB2204A13409CB27B681B6821
:101380001A007B691B789B00D3181A4A224392B239
:101390001A807B681B681A007B691B789B00D31836
:1013A0001B889BB2124A13409CB27B681B681A00D0
:1013B0007B691B789B00D3180E4A224392B21A8095
:1013C0007A68F4235B000021D1541123FB181B78A9
:1013D0001800BD4607B090BD0F0E00008081FFFFD2
:1013E000040400000F0F000080C0FFFFC080FFFF5B
:1013F0008FBFFFFF8080FFFFBF8FFFFF90B585B0DD
:1014000000AF78600A00FB1C1A70FB1C1B785BB2F3
:10141000002B0CDAFB1C1B787F221A401300DB0028
:101420009B1A9B0028337A68D318FB600CE0FB1CE6
:101430001B787F221A401300DB009B1A9B000933A4
:10144000FF337A68D318FB60FB1C1B787F221340A4
:10145000DAB2FB681A70FB1C1B785BB2DBB2DB09EB
:10146000DBB21A00FB685A707A68F4235B00D35C25
:10147000012B01D10223AEE17A68F4235B00012144
:10148000D154FB689B7A002B00D07CE0FB685B7832
:10149000002B3BD07B681B681A00FB681B789B0005
:1014A000D3181B889BB21A004023134016D07B68C8
:1014B0001B681A00FB681B789B00D3181B889BB223
:1014C000C74A13409AB27B681B681900FB681B78F7
:1014D0009B00CB18C3490A4392B21A807B681B68F1
:1014E0001A00FB681B789B00D3181B889BB2BE4A6E
:1014F00013409CB27B681B681A00FB681B789B003A
:10150000D318BA4A224392B21A805EE17B681B6804
:101510001A00FB681B789B00D3181B889BB21A002B
:101520008023DB01134016D07B681B681A00FB6820
:101530001B789B00D3181B889BB2A94A13409AB210
:101540007B681B681900FB681B789B00CB18A849B7
:101550000A4392B21A807B681B681A00FB681B78EA
:101560009B00D3181B889BB2A24A13409CB27B6895
:101570001B681A00FB681B789B00D3189B4A224308
:1015800092B21A8021E1FB685B78002B00D08EE0DC
:101590007B681B681A00FB681B789B00D3181B88AC
:1015A0009BB21A008023DB01134016D07B681B68B6
:1015B0001A00FB681B789B00D3181B889BB2884AD3
:1015C00013409AB27B681B681900FB681B789B006C
:1015D000CB1887490A4392B21A807B681B681A00AD
:1015E000FB681B789B00D3181B889BB21A00402312
:1015F000134016D07B681B681A00FB681B789B00A1
:10160000D3181B889BB2764A13409AB27B681B683A
:101610001900FB681B789B00CB1872490A4392B2F1
:101620001A807B681B681A00FB681B789B00D31824
:101630001B889BB26A4A13409AB27B681B681900E8
:10164000FB681B789B00CB1866490A4392B21A804C
:101650007B681B681A00FB681B789B00D3181B88EB
:101660009BB2644A13409CB27B681B681A00FB68FB
:101670001B789B00D3185D4A224392B21A807B6884
:101680001B681A00FB681B789B00D3181B889BB251
:10169000554A13409CB27B681B681A00FB681B7894
:1016A0009B00D318514A224392B21A808DE07B6886
:1016B0001B681A00FB681B789B00D3181B889BB221
:1016C0001A008023DB01134016D07B681B681A00C8
:1016D000FB681B789B00D3181B889BB2404A1340C1
:1016E0009AB27B681B681900FB681B789B00CB18BB
:1016F0003F490A4392B21A807B681B681A00FB6854
:101700001B789B00D3181B889BB21A004023134000
:1017100016D07B681B681A00FB681B789B00D318E7
:101720001B889BB22E4A13409AB27B681B68190033
:10173000FB681B789B00CB182A490A4392B21A8097
:101740007B681B681A00FB681B789B00D3181B88FA
:101750009BB2234A13409AB27B681B681900FB684E
:101760001B789B00CB1822490A4392B21A807B68EF
:101770001B681A00FB681B789B00D3181B889BB260
:10178000194A13409CB27B681B681A00FB681B78DF
:101790009B00D318154A224392B21A807B681B68BB
:1017A0001A00FB681B789B00D3181B889BB2114A58
:1017B00013409CB27B681B681A00FB681B789B0077
:1017C000D3180A4A224392B21A807A68F4235B0043
:1017D0000021D15400231800BD4605B090BDC0467D
:1017E0000F0F0000C080FFFFBF8FFFFF8080FFFF53
:1017F00080C0FFFF8FBFFFFF90B58BB000AFF860D8
:101800007A603B600B203B180A1C1A7001007B18A1
:101810001B787F221A401300DB009B1A9B000933C0
:10182000FF33FA68D318FB61FB697A681A61FB69B8
:101830003A685A61FB6900229A61FB6900225A707A
:101840007B181B787F221340DAB2FB691A70FB69A0
:101850005A69FB69DB689A4209D9FB69DB683B601E
:10186000FB695A693B68D21AFB695A6105E0FB695A
:101870005B693B60FB6900225A61FB699B7A002B24
:1018800045D1FB681B6850229B5A9BB21A00FB692A
:101890001B78DB00D3181A00FB681B68D318904A2A
:1018A000944663443B613B683E2B19D93B685A0917
:1018B0002623FB181A803B681F22134005D12621DE
:1018C0007B181A887B18013A1A802623FB181B887C
:1018D0009B029BB2834A13439AB23B691A80DAE0B7
:1018E0003B685A082623FB181A803B6801221340E4
:1018F00005D026217B181A887B1801321A802623EE
:10190000FB181B889B029AB23B691A80C3E0FB69F3
:101910005B78002B45D1FB681B6850229B5A9BB219
:101920001A00FB691B78DB00D3181A00FB681B68E0
:10193000D3186D4A94466344BB613B683E2B19D96A
:101940003B685A092423FB181A803B681F22134066
:1019500005D124217B181A887B18013A1A80242388
:10196000FB181B889B029BB25E4A13439AB2BB6969
:101970001A802EE03B685A082423FB181A803B6823
:101980000122134005D024217B181A887B180132CC
:101990001A802423FB181B889B029AB2BB691A8009
:1019A00017E0FB695B78012B13D1FB681B685022A1
:1019B0009B5A9BB21A00FB691B78DB00D3181A00F4
:1019C000FB681B68D318484A944663443A6892B24D
:1019D0001A80FB695B78002B45D1FB681B6850229D
:1019E0009B5A9BB21A00FB691B78DB00D3181A00C4
:1019F000FB681B68D3183A4A944663447B613B6892
:101A00003E2B19D93B685A092223FB181A803B68E0
:101A10001F22134005D122217B181A887B18013A16
:101A20001A802223FB181B889B029BB22D4A13436A
:101A30009AB27B691A802EE03B685A082223FB1871
:101A40001A803B680122134005D022217B181A8896
:101A50007B1801321A802223FB181B889B029AB242
:101A60007B691A8017E0FB695B78012B13D1FB6857
:101A70001B6850229B5A9BB21A00FB691B78DB0043
:101A8000D3181A00FB681B68D318154A94466344A0
:101A90003A6892B21A80FB681B681A00FB691B78CF
:101AA0009B00D3181B889BB2104A13409CB2802322
:101AB0005B0163409CB280239B0163409CB2FB6846
:101AC0001B681A00FB691B789B00D318084A224345
:101AD00092B21A8000231800BD460BB090BDC046DC
:101AE000060400000080FFFF020400008FBFFFFF1C
:101AF0008080FFFF90B58BB000AFF8607A603B60EC
:101B00000B203B180A1C1A702623FB1800221A808F
:101B100001007B181B787F221A401300DB009B1A00
:101B20009B002833FA68D318FB61FB697A681A6155
:101B3000FB693A685A61FB6900229A61FB690122DC
:101B40005A707B181B787F221340DAB2FB691A7037
:101B5000FB695A69FB69DB689A4209D9FB69DB6852
:101B60003B60FB695A693B68D21AFB695A6105E020
:101B7000FB695B693B60FB6900225A61FB699B7AE8
:101B8000002B1ED1FB681868FB691969FB699A88EC
:101B90003B689BB200F002FBFB681B6850229B5A1B
:101BA0009BB21A00FB691B78DB00D3181A00FB6894
:101BB0001B68D318A44A944663443A6892B21A80C8
:101BC0001FE1FB681B681A00FB691B789B00D31898
:101BD0001B889BB21A0040231340402B67D1FB693E
:101BE0005B78002B45D1FB681B6850229B5A9BB247
:101BF0001A00FB691B78DB00D3181A00FB681B680E
:101C0000D318924A944663447B613B683E2B19D9B2
:101C10003B685A092423FB181A803B681F22134093
:101C200005D124217B181A887B18013A1A802423B5
:101C3000FB181B889B029BB2854A13439AB27B69AF
:101C40001A802EE03B685A082423FB181A803B6850
:101C50000122134005D024217B181A887B180132F9
:101C60001A802423FB181B889B029AB27B691A8076
:101C700017E0FB695B78012B13D1FB681B685022CE
:101C80009B5A9BB21A00FB691B78DB00D3181A0021
:101C9000FB681B68D3186D4A944663443A6892B255
:101CA0001A802623FB18FA6912891A8066E0FB69FC
:101CB0005B78002B45D1FB681B6850229B5A9BB276
:101CC0001A00FB691B78DB00D3181A00FB681B683D
:101CD000D3185D4A94466344BB613B683E2B19D9D7
:101CE0003B685A092223FB181A803B681F221340C5
:101CF00005D122217B181A887B18013A1A802223E9
:101D0000FB181B889B029BB2514A13439AB2BB69D2
:101D10001A802EE03B685A082223FB181A803B6881
:101D20000122134005D022217B181A887B1801322A
:101D30001A802223FB181B889B029AB2BB691A8067
:101D400017E0FB695B78012B13D1FB681B685022FD
:101D50009B5A9BB21A00FB691B78DB00D3181A0050
:101D6000FB681B68D318384A944663443A6892B2B9
:101D70001A802623FB18FA69D2881A80FB68186833
:101D8000FB6919693B689CB22623FB181A8823005B
:101D900000F004FAFB695B78002B17D1FB681B6825
:101DA0001A00FB691B789B00D3181B889BB2294A39
:101DB00013409AB2FB681B681900FB691B789B00F3
:101DC000CB1825490A4392B21A801AE0FB695B7866
:101DD000012B16D1FB681B681A00FB691B789B005E
:101DE000D3181B889BB21B4A13409AB2FB681B682E
:101DF0001900FB691B789B00CB1818490A4392B263
:101E00001A80FB681B681A00FB691B789B00D318BB
:101E10001B889BB2124A13409CB2102363409CB2B1
:101E2000202363409CB2FB681B681A00FB691B7887
:101E30009B00D3180B4A224392B21A800023180049
:101E4000BD460BB090BDC046020400000604000071
:101E50000080FFFF0F0F0000C080FFFF80C0FFFF6A
:101E6000BF8FFFFF8080FFFF90B585B000AF786027
:101E70000A00FB1C1A707A68F4235B00D35C012B08
:101E800001D1022399E07A68F4235B000121D15447
:101E9000FB1C1B785BB2002B0CDAFB1C1B787F222F
:101EA0001A401300DB009B1A9B0028337A68D31872
:101EB000FB600AE0FB1C1A781300DB009B1A9B00F6
:101EC0000933FF337A68D318FB60FB6801229A70EC
:101ED000FB1C1B787F221340DAB2FB681A70FB1CD4
:101EE0001B785BB2DBB2DB09DBB21A00FB685A700D
:101EF000FB681B78002B20D17B681B681A00FB68ED
:101F00001B789B00D3181B889BB21A002D4B1A40DC
:101F1000140080235B0163401C00102363401C00FD
:101F2000A2B27B681B681900FB681B789B00CB186A
:101F300025490A4392B21A8039E0FB685B78002B8E
:101F40001AD07B681B681A00FB681B789B00D318AB
:101F50001B889BB21D4A13409CB2102363409CB265
:101F60007B681B681A00FB681B789B00D318164A15
:101F7000224392B21A801AE07B681B681A00FB6841
:101F80001B789B00D3181B889BB2114A13409CB24C
:101F900080235B0163409CB27B681B681A00FB686E
:101FA0001B789B00D318084A224392B21A807A68A1
:101FB000F4235B000021D15400231800BD4605B076
:101FC00090BDC046BFBF00008080FFFFBF8FFFFFF6
:101FD0008FBFFFFF90B585B000AF78600A00FB1C93
:101FE0001A70FB1C1B785BB2002B0CDAFB1C1B78F5
:101FF0007F221A401300DB009B1A9B0028337A686B
:10200000D318FB600AE0FB1C1A781300DB009B1A54
:102010009B000933FF337A68D318FB60FB6800220A
:102020009A70FB1C1B787F221340DAB2FB681A708F
:10203000FB1C1B785BB2DBB2DB09DBB21A00FB686E
:102040005A707A68F4235B00D35C012B01D1022320
:1020500094E07A68F4235B000121D154FB685B783B
:10206000002B41D07B681B681A00FB681B789B0023
:10207000D3181B889BB21A004023134016D07B68EC
:102080001B681A00FB681B789B00D3181B889BB247
:102090003C4A13409AB27B681B681900FB681B78A6
:1020A0009B00CB1838490A4392B21A807B681B68A0
:1020B0001A00FB681B789B00D3181B889BB2334A1D
:1020C00013409CB2102363409CB2202363409CB217
:1020D0007B681B681A00FB681B789B00D3182C4A8E
:1020E000224392B21A8043E07B681B681A00FB68A7
:1020F0001B789B00D3181B889BB21A008023DB013E
:10210000134016D07B681B681A00FB681B789B0085
:10211000D3181B889BB21B4A13409AB27B681B687A
:102120001900FB681B789B00CB181A490A4392B22E
:102130001A807B681B681A00FB681B789B00D31809
:102140001B889BB2144A13409CB280235B016340FE
:102150009CB280239B0163409CB27B681B681A0081
:10216000FB681B789B00D318094A224392B21A805D
:102170007A68F4235B000021D15400231800BD4687
:1021800005B090BD0F0F0000C080FFFFBF8FFFFFA5
:102190008080FFFF80C0FFFF8FBFFFFF90B589B039
:1021A00000AFF860B9601900BB1D1A803B1D0A1C06
:1021B0001A803B1D1B8801335B087B61BB1D1A889D
:1021C000FB68D3188022D20094466344BB617B69CC
:1021D000FB611EE0BB681A7812203B181A80BB68AE
:1021E0000133BB60BB681B789BB21B0299B2102401
:1021F0003B193A1812880A431A80BB699A1CBA61C3
:102200003A1912881A80BB680133BB60FB69013B35
:10221000FB61FB69002BDDD1C046BD4609B090BD16
:1022200080B588B000AFF860B9601900BB1D1A8096
:102230003B1D0A1C1A803B1D1B885B089BB27B61FF
:10224000BB1D1A88FB68D3188022D20094466344D1
:10225000BB617B69FB6114E0BB699A1CBA611B8896
:102260003B61BB685A1CBA603A69D2B21A703B69CA
:10227000190ABB685A1CBA60CAB21A70FB69013BE2
:10228000FB61FB69002BE7D13B1D1B88012213403A
:102290009BB2002B0AD0BB699A1CBA611B883B61B8
:1022A000BB685A1CBA603A69D2B21A70C046BD46C1
:1022B00008B080BD90B589B000AF78601E23FB18D0
:1022C00000221A800C23FB1800221A804AE30E23F6
:1022D000FB181B889BB2DAB21D203B180F210A4065
:1022E0001A703B181B78002B00D037E10E23FB1827
:1022F0001B889BB21A00102313404CD17B681B68CB
:102300001B889AB27B681B68C4490A4092B21A8043
:102310007B682833BB617B681B6850229B5A9BB249
:102320001A00BB691B78DB00D3181A007B681B6896
:10233000D318BB4A944663441B889B059A0DBB691E
:102340009A61BB691A69BB699B69D218BB691A613A
:102350007B680021180002F0A7FE7B6824229B5CAA
:10236000DBB2002B00D1FDE2BB695B69002B00D022
:10237000F8E27B6824229B5CDBB28022524213434A
:10238000DAB27B681B6891B24C2299527B68242296
:1023900000219954E6E27B680933FF33BB617B6817
:1023A0001B681B889AB20C217B181A807B181B882B
:1023B0009BB21A0080231B01134031D07B681B683D
:1023C00050229B5A9BB21A00BB691B78DB00D318C2
:1023D0001A007B681B68D318924A944663441B8892
:1023E0009B059A0DBB699A617B6818687B68ED3321
:1023F000FF331900BB699A88BB699B699BB2FFF7E1
:102400000FFF7B681B681B889AB27B681B68864934
:102410000A4092B21A807B68180002F011FEA1E215
:102420000C23FB181B889BB21BB2002B00DB99E22C
:102430007B681B681B889AB27B681B687A490A40D4
:1024400092B21A807B681B6850229B5A9BB21A007A
:10245000BB691B78DB00D3181A007B681B68D31894
:10246000704A944663441B889B059A0DBB699A6128
:10247000BB699B69002B11D07B681868BB6919691F
:10248000BB699A88BB699B699BB2FFF7C9FEBB69B0
:102490001A69BB699B69D218BB691A617B68002104
:1024A000180002F0E0FD7B681B6850229B5A9BB22B
:1024B0001A007B681B68D3185A4A944663443B61F0
:1024C000BB69DB683E2B1BD9BB69DB685A09162345
:1024D000FB181A80BB69DB681F22134005D1162147
:1024E0007B181A887B18013A1A801623FB181B8860
:1024F0009B029BB24D4A13439AB23B691A8017E084
:10250000BB69DB685A081623FB181A80BB69DB68B5
:102510000122134005D016217B181A887B1801323E
:102520001A801623FB181B889B029AB23B691A80FB
:102530007B681B681B889BB23D4A13409CB280237A
:102540005B0163409CB280239B0163409CB27B682B
:102550001B68384A224392B21A8003E27B681B68E8
:102560001A001D23FB181B789B00D3181B889AB2F6
:102570000C217B181A807B181B889BB21BB2002B86
:1025800000DBF9E07B681B681A001D203B181B78F4
:102590009B00D3181B889AB27B681B6819003B18F4
:1025A0001B789B00CB1820490A4092B21A803B1836
:1025B0001A781300DB009B1A9B000933FF337A68FB
:1025C000D318BB61BB699B7A002B35D17B681B6834
:1025D00050229B5A9BB21A00BB691B78DB00D318B0
:1025E0001A007B681B68D3180E4A944663441A8805
:1025F0001E217B189205920D1A807B181B88002BD8
:1026000000D18EE07B681868BB691969BB699A883C
:102610001E23FB181B88FFF703FE82E00F8FFFFFCE
:1026200002040000060400008F0F00000080FFFF7E
:102630008FBFFFFF8080FFFF7B681B681A00BB69AC
:102640001B789B00D3181B889BB21A008023DB01E8
:102650001A408023DB019A4226D17B681B685022F6
:102660009B5A9BB21A00BB691B78DB00D3181A0077
:102670007B681B68D318C44A944663441A881E2199
:102680007B189205920D1A807B181B88002B31D085
:102690007B681868BB691969BB69DA881E23FB1857
:1026A0001B88FFF7BDFD25E07B681B6850229B5A05
:1026B0009BB21A00BB691B78DB00D3181A007B6839
:1026C0001B68D318B14A944663441A881E217B18AC
:1026D0009205920D1A807B181B88002B0AD07B680C
:1026E0001868BB691969BB691A891E23FB181B8806
:1026F000FFF796FD7B681B681A00BB691B789B007F
:10270000D3181B889BB2A24A13409AB27B681B68FD
:102710001900BB691B789B00CB189E490A4392B2F3
:102720001A80BB699A691E217B181B88D218BB6965
:102730009A61BB691A697B181B88D218BB691A6138
:10274000BB695B69002B06D01E23FB181A88BB6986
:10275000DB689A4207D2BB691A787B6811001800BF
:1027600002F081FC08E0BB691978BB691A69BB6992
:102770005B697868FFF740F80C23FB181B889BB255
:102780001A008023134000D1ECE01D217B181A7839
:102790001300DB009B1A9B0028337A68D318BB61B7
:1027A0007B681B681A0008007B181B789B00D318F5
:1027B0001B889AB27B681B6819003B181B789B002A
:1027C000CB1875490A4092B21A80BB699B7A002BDC
:1027D00026D17B681B6850229B5A9BB21A00BB69AA
:1027E0001B78DB00D3181A007B681B68D318664A75
:1027F000944663441B889B059A0DBB699A61BB692B
:102800009B69002B00D17BE07B681868BB69196964
:10281000BB699A88BB699B699BB2FFF7BFFC6FE0FD
:102820007B681B681A00BB691B789B00D3181B8848
:102830009BB21A0040231340402B25D17B681B68B4
:1028400050229B5A9BB21A00BB691B78DB00D3183D
:102850001A007B681B68D3184B4A944663441B8854
:102860009B059A0DBB699A61BB699B69002B30D0AF
:102870007B681868BB691969BB69DA88BB699B69A1
:102880009BB2FFF78BFC24E07B681B6850229B5AAD
:102890009BB21A00BB691B78DB00D3181A007B6857
:1028A0001B68D318394A944663441B889B059A0DCC
:1028B000BB699A61BB699B69002B0AD07B68186869
:1028C000BB691969BB691A89BB699B699BB2FFF730
:1028D00065FC7B681B681A00BB691B789B00D318DA
:1028E0001B889BB22A4A13409AB27B681B68190066
:1028F000BB691B789B00CB1828490A4392B21A8007
:102900007B681B6850229B5A9BB21A00BB691B78DC
:10291000DB00D3181A007B681B68D3181A4A944648
:1029200063441B889B059A0DBB699A61BB691A6950
:10293000BB699B69D218BB691A61BB695B69002BD3
:1029400007D1BB691A787B681100180002F0ACFB54
:1029500008E0BB691978BB691A69BB695B6978686B
:10296000FFF7C8F87B681B6844229B5A9AB20E2373
:10297000FB18111C198013B2002B00DAA7E4002306
:102980001800BD4609B090BD020400000604000016
:102990000F0F0000C080FFFF0F8FFFFF80C0FFFF01
:1029A00090B587B000AFF860080011007B600A2482
:1029B0003B19021C1A800823FB180A1C1A803B19B9
:1029C0001B88802213409BB2002B0DD00A23FB18DA
:1029D0001B887F221A401300DB009B1A9B002833C0
:1029E000FA68D3187B610BE00A23FB181A881300DE
:1029F000DB009B1A9B000933FF33FA68D3187B6115
:102A00000823FB181B88002B07D17B6900229A72D0
:102A10007B689AB27B699A800BE07B6901229A728B
:102A20007B689AB27B69DA807B681B0C9AB27B69FF
:102A30001A8100231800BD4607B090BD80B586B04E
:102A400000AF786000233B617B681B680122134064
:102A500000D18DE0C54B5B680C221340042B0ED0D7
:102A6000C24B5B680C221340082B16D1BF4B5A682F
:102A7000C0235B021A4080235B029A420DD1BB4BFC
:102A80001A6880239B02134000D170E07B685B686A
:102A9000002B00D06BE0012329E37B685B68012BEE
:102AA00007D1B24B1A68B14B802149020A431A6020
:102AB0002FE07B685B68002B0CD1AC4B1A68AB4BEA
:102AC000AB490A401A60A94B1A68A84BA9490A40A9
:102AD0001A601EE07B685B68052B0ED1A34B1A6859
:102AE000A24B8021C9020A431A60A04B1A689F4B6F
:102AF000802149020A431A600BE09C4B1A689B4BE9
:102B00009B490A401A60994B1A68984B99490A40A8
:102B10001A607B685B68002B14D0FDF7BDFB0300D7
:102B20003B6108E0FDF7B8FB02003B69D31A642B58
:102B300001D90323DBE28D4B1A6880239B021340EB
:102B4000F0D015E0FDF7A8FB03003B6108E0FDF7BE
:102B5000A3FB02003B69D31A642B01D90323C6E20D
:102B6000824B1A6880239B021340F0D100E0C046DC
:102B70007B681B680222134000D16CE07B4B5B68D2
:102B80000C2213400ED0794B5B680C221340082BAB
:102B90001FD1764B5A68C0235B021A4080231B0268
:102BA0009A4216D1714B1B680222134005D07B68F4
:102BB000DB68012B01D0012399E26C4B1B68F822E2
:102BC000934319007B681B69DA00684B0A431A605B
:102BD00041E07B68DB68002B24D0644B1A68634BB0
:102BE00001210A431A60FDF757FB03003B6108E02F
:102BF000FDF752FB02003B69D31A022B01D90323D4
:102C000075E25A4B1B6802221340F1D0574B1B68E8
:102C1000F822934319007B681B69DA00534B0A437F
:102C20001A6018E0514B1A68504B01218A431A6010
:102C3000FDF732FB03003B6108E0FDF72DFB0200CE
:102C40003B69D31A022B01D9032350E2474B1B687F
:102C500002221340F1D17B681B680822134036D052
:102C60007B68DB69002B19D0404B5A6A3F4B01212E
:102C70000A435A62FDF710FB03003B6108E0FDF7D1
:102C80000BFB02003B69D31A022B01D903232EE26E
:102C9000364B5B6A02221340F1D018E0334B5A6A7C
:102CA000324B01218A435A62FDF7F6FA03003B6179
:102CB00008E0FDF7F1FA02003B69D31A022B01D9B3
:102CC000032314E2294B5B6A02221340F1D17B6893
:102CD0001B680422134000D1B6E01723FB18002222
:102CE0001A70224BDA6980235B05134011D11F4B08
:102CF000DA691E4B802149050A43DA611B4BDA6908
:102D000080235B051340FB60FB681723FB1801223F
:102D10001A70194B1A6880235B0013401AD1164BA6
:102D20001A68154B802149000A431A60FDF7B4FA6E
:102D300003003B6108E0FDF7AFFA02003B69D31ADC
:102D4000642B01D90323D2E10B4B1A6880235B006B
:102D50001340F0D07B689B68012B0FD1034B1A6A9C
:102D6000024B01210A431A6236E0C04600100240BD
:102D7000FFFFFEFFFFFFFBFF007000407B689B68CA
:102D8000002B0CD1CA4B1A6AC94B01218A431A6223
:102D9000C74B1A6AC64B04218A431A621CE07B683F
:102DA0009B68052B0CD1C24B1A6AC14B04210A4304
:102DB0001A62BF4B1A6ABE4B01210A431A620BE02A
:102DC000BB4B1A6ABA4B01218A431A62B84B1A6A82
:102DD000B74B04218A431A627B689B68002B14D08E
:102DE000FDF75AFA03003B6109E0FDF755FA0200CE
:102DF0003B69D31AAF4A934201D9032377E1AC4B25
:102E00001B6A02221340F0D013E0FDF745FA0300DD
:102E10003B6109E0FDF740FA02003B69D31AA54A7D
:102E2000934201D9032362E1A14B1B6A02221340A2
:102E3000F0D11723FB181B78012B05D19C4BDA69C5
:102E40009B4B9D490A40DA617B681B681022134046
:102E500063D07B685B69012B2AD1954B5A6B944BED
:102E600004210A435A63924B5A6B914B01210A4346
:102E70005A63FDF711FA03003B6108E0FDF70CFA15
:102E800002003B69D31A022B01D903232FE1884B9F
:102E90005B6B02221340F1D0854B5B6BF8229343AE
:102EA00019007B689B69DA00814B0A435A6334E05E
:102EB0007B685B69053311D17D4B5A6B7C4B0421D8
:102EC0008A435A637A4B5B6BF822934319007B6801
:102ED0009B69DA00764B0A435A631EE0744B5A6BC7
:102EE000734B04210A435A63714B5A6B704B012197
:102EF0008A435A63FDF7D0F903003B6108E0FDF710
:102F0000CBF902003B69D31A022B01D90323EEE06F
:102F1000674B5B6B02221340F1D17B681B68202258
:102F200013405CD0624B5B680C2213400C2B0ED01C
:102F30005F4B5B680C221340082B14D15C4B5A6822
:102F4000C0235B021A40C0235B029A420BD1584B4C
:102F50005A6B80235B02134040D07B681B6A012BB5
:102F60003CD00123C3E07B681B6A002B1BD0504B75
:102F70005A6B4F4B802149020A435A63FDF78CF983
:102F800003003B6108E0FDF787F902003B69D31AB3
:102F9000022B01D90323AAE0454B5A6B80235B0225
:102FA0001340F0D01BE0424B5A6B414B43490A405F
:102FB0005A63FDF771F903003B6108E0FDF76CF916
:102FC00002003B69D31A022B01D903238FE0384B4F
:102FD0005A6B80235B021340F0D100E0C0467B684F
:102FE0005B6A002B00D181E0314B5B680C221340FF
:102FF000082B00D178E07B685B6A022B4CD12C4B0C
:103000001A682B4B2E490A401A60FDF745F9030058
:103010003B6108E0FDF740F902003B69D31A022B3F
:1030200001D9032363E0224B1A6880239B041340D9
:10303000F0D11F4BDB6A0F22934319007B681A6B98
:103040001B4B0A43DA621A4B5B681E4A1340190095
:103050007B68DA6A7B689B6A1A43154B0A435A609D
:10306000134B1A68124B802149040A431A60FDF77A
:1030700013F903003B6108E0FDF70EF902003B691C
:10308000D31A022B01D9032331E0094B1A6880239C
:103090009B041340F0D029E0054B1A68044B084903
:1030A0000A401A60FDF7F8F803003B6115E0C046DE
:1030B0000010024088130000FFFFFFEFFFFFFEFF3C
:1030C000FFFFFFFEFF7FC2FFFDF7E6F802003B694E
:1030D000D31A022B01D9032309E0074B1A68802376
:1030E0009B041340F0D101E0012300E0002318000D
:1030F000BD4606B080BDC0460010024080B584B019
:1031000000AF786039600023FB607B4B1B680122B5
:1031100013403A689A4211D9774B1B6801229343B6
:103120001900754B3A680A431A60734B1B680122F9
:1031300013403A689A4201D00123D8E07B681B68AB
:103140000222134009D06D4B5B68F02293431900B3
:103150007B689A68694B0A435A607B681B68012246
:10316000134000D189E07B685B68012B07D1634B7A
:103170001A6880239B02134020D10123B7E07B68AB
:103180005B68022B07D15D4B1A6880239B041340B8
:1031900014D10123ABE07B685B68032B07D1574B4D
:1031A0005A6B80235B02134008D101239FE0534BED
:1031B0001B680222134001D1012398E04F4B5B684A
:1031C0000322934319007B685A684C4B0A435A60A8
:1031D000FDF762F80300FB607B685B68012B11D18F
:1031E00009E0FDF759F80200FB68D31A444A9342FC
:1031F00001D903237BE0414B5B680C221340042B75
:10320000EFD13AE07B685B68022B11D109E0FDF752
:1032100043F80200FB68D31A394A934201D90323C9
:1032200065E0364B5B680C221340082BEFD124E09D
:103230007B685B68032B1BD109E0FDF72DF80200CA
:10324000FB68D31A2E4A934201D903234FE02B4B3C
:103250005B680C2213400C2BEFD10EE0FDF71CF83D
:103260000200FB68D31A264A934201D903233EE0A9
:10327000224B5B680C221340F0D11F4B1B680122CC
:1032800013403A689A4211D21B4B1B6801229343A8
:103290001900194B3A680A431A60174B1B68012240
:1032A00013403A689A4201D0012320E07B681B68F2
:1032B0000422134009D0114B5B68124A13401900D5
:1032C0007B68DA680D4B0A435A6000F021F8010070
:1032D0000A4B5B681B090F2213400B4AD35C0A00A0
:1032E000DA400A4B1A600020FCF7AEFF00231800FA
:1032F000BD4604B080BDC046002002400010024020
:1033000088130000FFF8FFFF545A0008B80000209F
:1033100090B58FB000AF1423FB18374A13CA13C3FC
:1033200012681A603B1D354A13CA13C312681A602B
:103330000023FB620023BB6200237B6300237B62CC
:1033400000233B632E4B5B68FB62FB6A0C2213403D
:10335000082B06D00C2B43D0042B44D1294B3B63C4
:1033600044E0FB6A9B0C0F2213401422BA18D35C72
:103370007B62234BDB6A0F2213403A1DD35CBB6296
:10338000FA6AC0235B021A4080235B029A4209D189
:10339000B96A1C48FCF7B8FE03001A007B6A534365
:1033A0007B631AE0FA6AC0235B021A40C0235B0207
:1033B0009A4209D1B96A1448FCF7A6FE03001A0024
:1033C0007B6A53437B6308E0B96A0E48FCF79CFEB6
:1033D00003001A007B6A53437B637B6B3B6305E00E
:1033E000094B3B6302E0074B3B63C0463B6B180055
:1033F000BD460FB090BDC0467C5900088C590008EE
:103400000010024000127A00006CDC0280B500AFB0
:10341000024B1B681800BD4680BDC046B8000020A6
:1034200080B586B000AF786000233B610023FB606D
:103430007B681A6880235B02134000D18FE017235A
:10344000FB1800221A706F4BDA6980235B0513406A
:1034500011D16C4BDA696B4B802149050A43DA6163
:10346000684BDA6980235B051340BB60BB68172398
:10347000FB1801221A70644B1A6880235B0013400A
:103480001AD1614B1A68604B802149000A431A60C7
:10349000FCF702FF03003B6108E0FCF7FDFE0200C1
:1034A0003B69D31A642B01D90323A6E0564B1A6853
:1034B00080235B001340F0D0524B1A6AC0239B005C
:1034C0001340FB60FB68002B34D07B685A68C02334
:1034D0009B001340FA689A422CD04A4B1B6A4B4A15
:1034E0001340FB60474B1A6A464B802149020A434E
:1034F0001A62444B1A6A434B45490A401A62414BCF
:10350000FA681A62FB680122134013D0FCF7C4FE6C
:1035100003003B6109E0FCF7BFFE02003B69D31AE0
:103520003C4A934201D9032367E0364B1B6A0222CF
:103530001340F0D0334B1B6A344A134019007B68A8
:103540005A68304B0A431A621723FB181B78012B69
:1035500005D12C4BDA692B4B2F490A40DA617B6885
:103560001B680122134009D0264B1B6B0322934397
:1035700019007B689A68234B0A431A637B681B68AF
:103580000222134009D01F4B1B6B244A1340190021
:103590007B68DA681B4B0A431A637B681B6820222E
:1035A000134009D0174B1B6B1022934319007B6803
:1035B0001A69144B0A431A637B681A6880239B02BA
:1035C000134009D00F4B1B6B8022934319007B687B
:1035D0009A690C4B0A431A637B681A688023DB00E4
:1035E000134009D0074B1B6B4022934319007B68A3
:1035F0005A69044B0A431A6300231800BD4606B0FB
:1036000080BDC0460010024000700040FFFCFFFF7C
:10361000FFFFFEFF88130000FFFFFFEFFFFFFCFF2F
:1036200080B584B000AF78600A00FB1C1A700F23CD
:10363000FB1800221A70786804230322812101F00C
:1036400035FE102001F0BAFF01007A6886239B0046
:10365000D1507A6886239B00D358002B04D10F23C6
:10366000FB1801221A7005E07A6886239B00D35864
:1036700000221A730F23FB181B781800BD4604B0F4
:1036800080BD80B582B000AF78600A00FB1C1A7064
:103690007B688121180001F040FE7A6886239B0038
:1036A000D358002B0BD07A6886239B00D358180080
:1036B00001F090FF7A6886239B000021D1500023FF
:1036C0001800BD4602B080BD80B586B000AF7860FE
:1036D00039601623FB1800221A8000233B617A68A8
:1036E00086239B00D358FB603B681B781A0060233D
:1036F000134036D0202B00D077E03B685B78032B5B
:103700000ED002DC022B1BD022E00A2B0FD00B2B99
:103710001ED13B685B88DBB21A00FB681A601FE0B1
:10372000F9687B680122180001F060F818E03B6836
:103730005B881B0A9BB2DBB21A00FB685A600FE081
:10374000FB68191D7B680122180001F04FF807E0A3
:103750003A687B681100180000F0C8FF022345E0BA
:1037600043E03B685B780A2B2FD00B2B36D0062B1F
:103770003BD13B685B881B0A9BB2222B0BD13B6879
:10378000DB881622BA1899B22D2900D92D2313806F
:10379000184B3B6110E03B685B881B0A9BB2212BF6
:1037A0000AD1154B3B613B68DB881622BA1899B2E7
:1037B000092900D9092313801623FB181A883969AF
:1037C0007B68180001F012F80FE0FB68083319005D
:1037D0007B680122180001F009F806E03B685B886D
:1037E000DBB21A00FB689A60C04600231800BD4691
:1037F00006B080BD740000205C00002080B586B05B
:1038000000AFF860B960BB1D1A80FA6886239B0080
:10381000D3587B61FA68FE235B00D35C032B0DD188
:103820007B691B7B002B09D17B6901221A73BB1DAD
:103830001B88BA68F868812101F050FE0023180047
:10384000BD4606B080BD000080B582B000AF786094
:103850007B6822221A80024B1800BD4602B080BD50
:103860003800002080B582B000AF78600A00FB1CF1
:103870001A707A6886239B00D35800221A7300239B
:103880001800BD4602B080BD80B582B000AF786040
:103890007B680A221A80024B1800BD4602B080BD28
:1038A0006800002080B584B000AFF860B960FB1DEF
:1038B0001A70FB68002B01D1022320E0FA688523EF
:1038C0009B00D358002B04D0FA6885239B0000216D
:1038D000D150BB68002B04D0FA6884239B00B968E0
:1038E000D150FA68FE235B000121D154FB68FA1D18
:1038F00012781A70FB68180001F062FC00231800AF
:10390000BD4604B080BD80B584B000AF786039603A
:103910000F23FB1800221A703B68002B09D07A682D
:1039200085239B003968D1500F23FB1800221A70A1
:1039300003E00F23FB1802221A700F23FB181B78D9
:103940001800BD4604B080BD80B582B000AF78607D
:103950007B68180001F084FC00231800BD4602B00B
:1039600080BD80B582B000AF786000231800BD46EE
:1039700002B080BD80B584B000AF78600A00FB1C47
:103980001A700F23FB1802221A707A6885239B0095
:10399000D358002B0FD07A6885239B00D3581B681F
:1039A000FA1C11787A6810009847031E03D10F2380
:1039B000FB1800221A700F23FB181B781800BD4655
:1039C00004B080BD80B582B000AF78600A00FB1CF7
:1039D0001A707A6885239B00D3585B68FA1C1178AB
:1039E0007A681000984700231800BD4602B080BDD9
:1039F00080B582B000AF786039607B688222920027
:103A0000944663443A681100180000F034FE7A6866
:103A1000FA235B000121D1507B68224A9B5A19008E
:103A20007A68FC235B00D1507A6882239B00D35CC8
:103A30001A001F231340012B0DD0022B15D0002B91
:103A40001DD17B68822292009A187B6811001800B1
:103A500000F0BEF920E07B68822292009A187B6811
:103A60001100180000F008FA16E07B68822292002C
:103A70009A187B681100180000F03DFA0CE07A6893
:103A800082239B00D35C7F229343DAB27B681100D0
:103A9000180001F06EFCC04600231800BD4602B0BD
:103AA00080BDC0460E02000080B586B000AFF86051
:103AB0007A600B203B180A1C1A703B181B78002BED
:103AC0003ED1FB680533FF337B61FA68FA235B0064
:103AD000D358032B4CD17B699A687B69DB689A4287
:103AE00014D97B699A687B69DB68D21A7B699A6012
:103AF0007B69DA687B699B689A4200D91A0092B2A6
:103B00007968FB68180000F0A4FE31E0FA688523AC
:103B10009B00D3581B69002B0DD0FA68FE235B0075
:103B2000D35C032B07D1FA6885239B00D3581B690C
:103B3000FA6810009847FB68180000F09DFE17E037
:103B4000FA6885239B00D3589B69002B10D0FA6834
:103B5000FE235B00D35C032B0AD1FA6885239B000C
:103B6000D3589B690B22BA181178FA68100098474D
:103B700000231800BD4606B080BD80B586B000AFFA
:103B8000F8607A600B203B180A1C1A703B181B78EF
:103B9000002B00D077E0FB6814337B61FA68FA23CE
:103BA0005B00D358022B5ED17B699A687B69DB6826
:103BB0009A4215D97B699A687B69DB68D21A7B695E
:103BC0009A607B699B689AB27968FB68180000F07C
:103BD0002DFEF86800230022002101F0B7FC42E02E
:103BE0007B695A687B69DB6819001000FCF712FBDF
:103BF0000B1E1FD17B695A687B69DB689A4219D317
:103C00007B695A68F968FC235B00CB589A4211D251
:103C1000FB6800220021180000F008FEFA68FC236F
:103C20005B000021D150F86800230022002101F040
:103C30008DFC18E0FA6885239B00D358DB68002BC5
:103C40000DD0FA68FE235B00D35C032B07D1FA6822
:103C500085239B00D358DB68FA6810009847FB68FF
:103C6000180000F01DFEFA6880239B00D35C012B36
:103C700021D1FB681800FFF774FEFA6880239B00CF
:103C80000021D15417E0FA6885239B00D3585B6963
:103C9000002B10D0FA68FE235B00D35C032B0AD103
:103CA000FA6885239B00D3585B690B22BA181178F8
:103CB000FA681000984700231800BD4606B080BD82
:103CC00080B582B000AF7860786840230022002180
:103CD00001F0ECFA7A6888235B004021D1507868C3
:103CE00040230022802101F0E1FA7B6840221A6221
:103CF0007A68FE235B000121D1547A6886239B00F9
:103D0000D358002B0AD07A6885239B00D3585A6871
:103D10007B685B68D9B27B68180090470023180065
:103D2000BD4602B080BD80B582B000AF78600A00A9
:103D3000FB1C1A707B68FA1C12781A740023180096
:103D4000BD4602B080BD80B582B000AF78607A68B1
:103D5000FE235B00D15C7A68FE23FF33D1547A687E
:103D6000FE235B000421D15400231800BD4602B09D
:103D700080BD80B582B000AF78607A68FE23FF33E3
:103D8000D15C7A68FE235B00D15400231800BD4645
:103D900002B080BD80B582B000AF78607A68FE2343
:103DA0005B00D35C032B0ED17A6885239B00D3582C
:103DB000DB69002B07D07A6885239B00D358DB6929
:103DC0007A681000984700231800BD4602B080BDF5
:103DD00080B584B000AF786039600F23FB180022F3
:103DE0001A703B685B78092B35D89A00214BD318A1
:103DF0001B689F463A687B681100180000F092F932
:103E000030E03A687B681100180000F095FA29E06C
:103E10003A687B681100180000F0DCFA22E03A688A
:103E20007B681100180000F071FB1BE03A687B68AA
:103E30001100180000F0A2FB14E03A687B68110042
:103E4000180000F0CAFB0DE03A687B68110018000A
:103E500000F0E2FB06E03A687B681100180000F011
:103E600045FCC0460F23FB181B781800BD4604B064
:103E700080BDC046E059000880B584B000AF7860CE
:103E800039600F23FB1800221A707A68FE235B004A
:103E9000D35C032B22D13B689B88DBB2012B16D865
:103EA0007A6885239B00D3589B6839687A6810002C
:103EB00098473B68DB88002B17D10F23FB181B7832
:103EC000002B12D17B68180000F0D6FC0DE03A6898
:103ED0007B681100180000F009FC06E03A687B6876
:103EE0001100180000F002FC00E0C046002318009A
:103EF000BD4604B080BD80B584B000AF7860396045
:103F00000F23FB1800221A703B689A880E23FB18B7
:103F10001A703B681B781A0060231340202B0AD1CB
:103F20007A6885239B00D3589B6839687A681000AB
:103F300098470023F1E03B685B78012B4ED0032BC0
:103F400003D0002B00D190E0E4E07A68FE235B0010
:103F5000D35C022B02D0032B13D036E00E23FB18C8
:103F60001B78002B38D00E23FB181B78802B33D006
:103F70000E23FB181A787B681100180001F0F9F97C
:103F80002AE03B685B88002B11D10E23FB181B78BD
:103F9000002B0CD00E23FB181B78802B07D00E2390
:103FA000FB181A787B681100180001F0E2F97A68B2
:103FB00085239B00D3589B6839687A68100098471E
:103FC0007B68180000F058FC07E03A687B68110035
:103FD000180000F08BFB00E0C0469BE07A68FE23EF
:103FE0005B00D35C022B02D0032B13D032E00E23F4
:103FF000FB181B78002B34D00E23FB181B78802B6A
:104000002FD00E23FB181A787B681100180001F0DE
:10401000B0F926E03B685B88002B24D10E23FB1807
:104020001B787F22134010D00E23FB181A787B6870
:104030001100180001F0C9F97A6885239B00D35854
:104040009B6839687A68100098477B68180000F010
:1040500013FC08E03A687B681100180000F046FB8A
:1040600002E0C04656E0C04654E07A68FE235B009A
:10407000D35C022B02D0032B0FD042E00E23FB189F
:104080001B787F22134043D00E23FB181A787B68DD
:104090001100180001F06DF93AE00E23FB181B78AF
:1040A0005BB2002B0ADA0E23FB181B787F22134029
:1040B00001331B017A68D318043309E00E23FB187F
:1040C0001B787F22134010331B017A68D318043306
:1040D000BB600E23FB181A787B681100180001F0F2
:1040E000A0F9031E03D0BB6801221A6002E0BB687E
:1040F00000221A60B9687B680222180000F076FB83
:1041000007E03A687B681100180000F0EFFA00E061
:10411000C046C0460F23FB181B781800BD4604B0EC
:1041200080BD000080B584B000AF786039603B6826
:104130005B881B0A9BB2072B00D9CEE09A007C4B10
:10414000D3181B689F467A6884239B00D3581B684A
:104150007A68127C0A217918100098470300FB60E6
:10416000C2E07B681B7C002B0FD17A6885239B0003
:10417000D3589B6A0A22BA18100098470300FB60C4
:10418000FB68013302221A70AEE07A6885239B0037
:10419000D358DB6A0A22BA18100098470300FB6064
:1041A000FB68013302221A709EE03B685B88DBB239
:1041B000052B58D89A005F4BD3181B689F467A6826
:1041C00084239B00D3585B687A68127C0A21791893
:1041D000100098470300FB604CE07A6884239B0042
:1041E000D3589B687A68127C0A2179181000984786
:1041F0000300FB603EE07A6884239B00D358DB68B1
:104200007A68127C0A217918100098470300FB6035
:1042100030E07A6884239B00D3581B697A68127C4B
:104220000A217918100098470300FB6022E07A68A1
:1042300084239B00D3585B697A68127C0A21791821
:10424000100098470300FB6014E07A6884239B0009
:10425000D3589B697A68127C0A2179181000984714
:104260000300FB6006E03A687B681100180000F06C
:104270003DFA59E038E07B681B7C002B0BD17A6853
:1042800085239B00D3585B6B0A22BA18100098470D
:104290000300FB6028E03A687B681100180000F01A
:1042A00025FA41E07B681B7C002B0FD17A688523BF
:1042B0009B00D3581B6B0A22BA18100098470300C2
:1042C000FB60FB68013307221A700DE03A687B68D7
:1042D0001100180000F00AFA26E03A687B68110025
:1042E000180000F003FA1FE00A23FB181B88002BBC
:1042F0001AD03B68DB88002B16D03B68DA880A238B
:10430000FB181B88181C111C8AB283B29A4200D970
:10431000011C8AB20A217B181A807B181A88F96856
:104320007B68180000F062FABD4604B080BDC0464C
:10433000085A0008285A000890B585B000AF786088
:1043400039603B689B88002B3AD13B68DB88002BA7
:1043500036D13B685B88DAB20F23FB187F210A4015
:104360001A707A68FE235B00D35C032B06D13A688F
:104370007B681100180000F0B9F927E07A680F2473
:104380003919FF235B000978D1543B191A787B68EF
:104390001100180001F076F87B68180000F06CFA44
:1043A0003B191B78002B05D07A68FE235B000221A5
:1043B000D1540BE07A68FE235B000121D15405E063
:1043C0003A687B681100180000F090F9C046BD46BD
:1043D00005B090BD80B582B000AF786039603B68B1
:1043E0005B88DAB2484B1A70474B1B78012B06D911
:1043F0003A687B681100180000F078F981E07A686B
:10440000FE235B00D35C022B02D0032B29D071E08A
:104410003D4B1B78002B1FD03B4B1B781A007B6851
:104420005A607A68FE235B000321D154364B1A7818
:104430007B6811001800FFF79DFA0300022B06D1DC
:104440003A687B681100180000F050F959E07B6869
:10445000180000F011FA54E07B68180000F00CFA24
:104460004FE0294B1B78002B15D17A68FE235B00A7
:104470000221D154244B1B781A007B685A60224BCE
:104480001A787B6811001800FFF79CFA7B68180007
:1044900000F0F2F935E01C4B1B781A007B685B6872
:1044A0009A4222D07B685B68DAB27B681100180000
:1044B000FFF788FA144B1B781A007B685A60124B7E
:1044C0001A787B6811001800FFF754FA0300022BDA
:1044D00006D13A687B681100180000F007F910E077
:1044E0007B68180000F0C8F90BE07B68180000F04A
:1044F000C3F906E03A687B681100180000F0F6F88E
:10450000C046BD4602B080BD2801002080B582B003
:1045100000AF786039603B68DB88012B06D03A68D1
:104520007B681100180000F0E1F823E07A68FE23B0
:104530005B00D35C022B02D0032B0CD013E07B6812
:1045400000229A607B68083319007B6801221800FA
:1045500000F04CF90EE07B68191D7B680122180001
:1045600000F044F906E03A687B681100180000F09A
:10457000BDF8C046C046BD4602B080BD80B582B021
:1045800000AF786039607A68FE235B00D35C023B41
:10459000012B17D87B680022DA607A6881239B00A0
:1045A000D358002B05D07B68DB6802221A437B6856
:1045B000DA607B680C3319007B680222180000F077
:1045C00015F906E03A687B681100180000F08EF8D3
:1045D000C046C046BD4602B080BD80B582B000AFC7
:1045E000786039603B685B88012B11D17A68812340
:1045F0009B000121D1507A6885239B00D3589B688A
:1046000039687A68100098477B68180000F034F920
:10461000C046BD4602B080BD80B582B000AF7860B4
:1046200039607A68FE235B00D35C023B012B16D80D
:104630003B685B88012B19D17A6881239B0000219C
:10464000D1507A6885239B00D3589B6839687A6873
:10465000100098477B68180000F00EF906E03A68F1
:104660007B681100180000F041F800E0C046C04629
:10467000BD4602B080BD80B582B000AF78603960C1
:104680003B681A787B681A703B685A787B685A7066
:104690003B6802331B789AB23B6803331B789BB2AA
:1046A0001B029BB2D3189AB27B685A803B680433D2
:1046B0001B789AB23B6805331B789BB21B029BB2F6
:1046C000D3189AB27B689A803B6806331B789AB2FB
:1046D0003B6807331B789BB21B029BB2D3189AB27C
:1046E0007B68DA80C046BD4602B080BD80B582B02E
:1046F00000AF786039607B688021180000F039FED7
:104700007B680021180000F034FEC046BD4602B0B0
:1047100080BD90B587B000AFF860B9607A601723AC
:10472000FB1800221A70FB68002B3ED0FB681800B3
:1047300000F03FF8030001339BB2DB189AB27B68AC
:104740001A807B68198817243B191B783A19581C62
:1047500010701A00BB689B18CAB21A703B191B78FC
:104760003A19591C11701A00BB689B1803221A7061
:1047700017E0FB685A1CFA6017243A1912783919A5
:10478000501C08701100BA6852181B7813703B193E
:104790001B783A19591C11701A00BB689B1800222B
:1047A0001A70FB681B78002BE3D1C046BD4607B0EA
:1047B00090BD80B584B000AF78600F23FB18002255
:1047C0001A7008E00F217B181A787B1801321A70D2
:1047D0007B6801337B607B681B78002BF2D10F2351
:1047E000FB181B781800BD4604B080BD80B584B0AE
:1047F00000AFF860B960BB1D1A80FA68FA235B004D
:104800000221D150BB1D1A88FB689A61BB1D1A8812
:10481000FB68DA61BB1D1B88BA68F868002100F0EC
:104820005DFE00231800BD4604B080BD80B584B095
:1048300000AFF860B960BB1D1A80BB1D1B88BA6849
:10484000F868002100F04AFE00231800BD4604B0BD
:1048500080BD80B584B000AFF860B960BB1D1A8020
:10486000BB1D1B88BA68F868002100F06FFE0023AA
:104870001800BD4604B080BD80B582B000AF78603E
:104880007A68FA235B000421D15078680023002263
:10489000002100F023FE00231800BD4602B080BDB9
:1048A00080B582B000AF78607A68FA235B0005219A
:1048B000D150786800230022002100F047FE002339
:1048C0001800BD4602B080BD80B582B000AF7860F0
:1048D0007B689A680A4B9A607B681A68084B1A6072
:1048E0007B68DA68064BDA607B685A68044B5A606A
:1048F000034B1B689847C046BD4602B080BDC0460A
:104900004401002080B582B000AF0200FB1D1A7088
:10491000054B5B68FA1D1278012110009847C046CC
:10492000BD4602B080BDC0464401002080B582B0C3
:1049300000AF0200FB1D1A70054B5B68FA1D127870
:10494000002110009847C046BD4602B080BDC04659
:104950004401002080B582B000AF0200FB1D1A7038
:10496000054BDB68FA1D1278100098470300180009
:10497000BD4602B080BDC0464401002090B585B060
:1049800000AF78600F23FB1800221A700E23FB186B
:1049900000221A700D23FB1800221A700C217B18BC
:1049A00000221A707B1800221A700AE00C203B18B3
:1049B0001B787A680021D1543B181A783B180132D1
:1049C0001A700C23FB181B78102BEFD90E23FB1841
:1049D00000221A703EE00E23FB181B781800FFF728
:1049E00091FF0D23FB1800221A7021E00D23FB1804
:1049F0001B781800FFF7AEFF031E13D00D23FB1822
:104A000019780E23FB181A780F243B191B781748C6
:104A100089004118895C7A68D1543B191A783B198E
:104A200001321A700D217B181A787B1801321A7026
:104A30000D23FB181B78042BD8D90E210C007B18F2
:104A40001B781800FFF772FF21007B181A787B187B
:104A500001321A700E23FB181B78032BBBD90F23CE
:104A6000FB181B781800BD4605B090BDA4000020BF
:104A700080B586B000AF3B1D00225A603B1D02226C
:104A80009A603B1DF82212021A603B1D0C4A190065
:104A90001000FBF703FD3B1D01225A603B1D002265
:104AA0009A603B1D0F221A603A1D9023DB0511000E
:104AB0001800FBF7F3FCC046BD4606B080BDC046FB
:104AC0000004004880B582B000AF0200BB1D1A8010
:104AD000BB1D1B881800FBF7E9FBC046BD4602B0B2
:104AE00080BD80B582B000AF0200FB1D1A70BB1DF7
:104AF0000A1C1A70FB1D1B78012B11D002DC002B45
:104B000005D028E0022B14D0032B1BD023E0BB1DC3
:104B10001A789023DB0501211800FBF758FE1AE0F4
:104B2000BB1D1A789023DB0502211800FBF74FFE0E
:104B300011E0BB1D1A789023DB0504211800FBF758
:104B400046FE08E0BB1D1A789023DB0508211800FB
:104B5000FBF73DFEC046C046BD4602B080BD00002A
:104B600080B584B000AF0200FB1D1A700F23FB1844
:104B700000221A70FB1D1B78042B4FD89A002B4B78
:104B8000D3181B689F4680231B02294A1900100076
:104B9000FBF700FE03001A000F23FB18511E8A4189
:104BA0001A703CE08023DB01214A19001000FBF75A
:104BB000F1FD03001A000F23FB18511E8A411A70E1
:104BC0002DE080239B011A4A19001000FBF7E2FD3B
:104BD00003001A000F23FB18511E8A411A701EE0B1
:104BE00080235B01124A19001000FBF7D3FD03007C
:104BF0001A000F23FB18511E8A411A700FE0802300
:104C00001B010B4A19001000FBF7C4FD03001A003A
:104C10000F23FB18511E8A411A7000E0C0460F2373
:104C2000FB181B781800BD4604B080BD405A000830
:104C30000004004880B500AF00F0B2F9C046BD46A0
:104C400080BD000080B582B000AF78607968044B09
:104C500008221800FEF7D2FDC046BD4602B080BD56
:104C60005C01002080B58CB000AF1B23FB18002234
:104C70001A703B00180008231A00002100F06AFE99
:104C8000FBF7CEFA00F048F800F09AF8FFF7D2FFF1
:104C900008217B181C4A1A607B181C4A9A607B18F2
:104CA0001B4ADA607B181B4A5A607B181800FFF712
:104CB0000BFE1C23FB181800FFF760FE03001A0010
:104CC0001B23FB181A702F23FB1800221A7010E008
:104CD0002F203B181A783B181B7802331C217918B7
:104CE0008A5CD1B23A00D1543B181A783B18013291
:104CF0001A702F23FB181B78072BE9D93B001800EB
:104D0000FFF7A0FFD5E7C046714A0008C54A000872
:104D1000614B0008E34A000890B599B000AF2C241D
:104D20003B19180034231A00002100F013FE1C2345
:104D3000FB18180010231A00002100F00BFE3B00A6
:104D400018001C231A00002100F004FE3B19202249
:104D50001A603B1901221A623B1900225A623B1960
:104D60001800FDF76BFE031E01D000F085F81C2132
:104D70007B1807221A607B1803225A607B180022D6
:104D80009A607B180022DA607B1801211800FEF778
:104D9000B5F9031E01D000F06FF83B0080229202AB
:104DA0001A603B0000229A613B001800FEF738FBB6
:104DB000031E01D000F060F8C046BD4619B090BD9A
:104DC00090B589B000AF0C243B19180014231A00C9
:104DD000002100F0BFFD264B5A69254B8021890236
:104DE0000A435A61224B5A6980239B021340BB60DD
:104DF000BB681F4B5A691E4B8021C9020A435A6186
:104E00001B4B5A698023DB0213407B607B68902335
:104E1000DB0500220F211800FBF7D9FC21007B18CD
:104E20000F221A607B1801225A607B1800229A60B8
:104E30007B180022DA600C007A189023DB05110041
:104E40001800FBF72BFB21007B18F82212021A60D6
:104E50007B1800225A607B1802229A607B18054A50
:104E600019001000FBF71AFBC046BD4609B090BD03
:104E7000001002400004004880B500AFC046BD46A7
:104E800080BD000080B582B000AF0F4B9A690E4B19
:104E900001210A439A610C4B9B69012213407B60FC
:104EA0007B68094BDA69084B802149050A43DA61BE
:104EB000054BDA6980235B0513403B603B68C046C5
:104EC000BD4602B080BDC0460010024080B500AFB4
:104ED000C046BD4680BD80B500AFFEE780B500AFDF
:104EE000C046BD4680BD80B500AFC046BD4680BD52
:104EF00080B500AFFBF7C4F9C046BD4680BD0000D9
:104F000080B500AF034B1800FBF786FDC046BD46D9
:104F100080BDC0468003002080B500AF1A4B1A68E0
:104F2000194B01210A431A60174B5A68164B17494F
:104F30000A405A60144B1A68134B15490A401A600C
:104F4000114B1A68104B13490A401A600E4B5A68ED
:104F50000D4B11490A405A600B4BDA6A0A4B0F217C
:104F60008A43DA62084B1A6B074B0C490A401A63F2
:104F7000054B5A6B044B01218A435A63024B0022B2
:104F80009A60C046BD4680BD001002400CB8FF08C4
:104F9000FFFFF6FEFFFFFBFFFFFFC0FF2CFEFCFF45
:104FA00080B500AF0F49104B00221800FEF77AFCC5
:104FB000031E01D0FFF760FF0C4A0B4B11001800D5
:104FC000FEF7A1FC031E01D0FFF756FF064B1800A9
:104FD000FEF7BAFC031E01D0FFF74EFFC046BD46E8
:104FE00080BDC046BC0000205C0100200000002005
:104FF00080B584B000AF78607B681B680E4A93422E
:1050000015D10E4BDA690D4B802109040A43DA6190
:105010000A4BDA6980231B041340FB60FB68002203
:1050200000211F20FBF708FA1F20FBF71AFAC046E1
:10503000BD4604B080BDC046005C00400010024088
:1050400080B582B000AF78607A6887239B00D25821
:105050007B68ED33FF3319001000FEF7C9FCC04632
:10506000BD4602B080BD90B583B000AF78600A0045
:10507000FB1C1A707A6887239B00D458FB1C1A7893
:1050800078688C2359001300DB009B1A9B00C3181F
:105090005B181A68FB1C1B7819002000FEF704FD42
:1050A000C046BD4603B090BD80B582B000AF786009
:1050B0000A00FB1C1A707A6887239B00D058FB1CDF
:1050C0001A7879681300DB009B1A9B00CB183833E1
:1050D0001A68FB1C1B781900FEF74FFDC046BD4641
:1050E00002B080BD80B582B000AF78607A68872357
:1050F0009B00D3581800FEF74DFEC046BD4602B0D7
:1051000080BD80B584B000AF78600F23FB1801220A
:105110001A707B689B68022B01D0FFF7ADFE7A689E
:1051200087239B00D2580F23FB181B78190010000F
:10513000FEF7F9FD7A6887239B00D3581800FEF725
:10514000BFFDC046BD4604B080BD000080B582B042
:1051500000AF78607A6887239B00D3581800FEF769
:10516000F2FD7B689B69002B05D0054B1A69044B47
:1051700006210A431A61C046BD4602B080BDC04642
:1051800000ED00E080B582B000AF78607B689B697D
:10519000002B07D0094B1A69084B06218A431A6174
:1051A00000F020FA7A6887239B00D3581800FEF796
:1051B000E0FDC046BD4602B080BDC04600ED00E047
:1051C00080B582B000AF7860234A87239B0079685E
:1051D000D1507A6888239B001F49D1501E4B1F4A2B
:1051E0001A601D4B08225A601B4B02229A601A4B10
:1051F00002221A61184B00229A61174B0022DA61D1
:10520000154B00221A62144B1800FBF7FDFA031E1F
:1052100001D0FFF731FE7A6888239B00D05818230D
:1052200000220021FDF7BCFB7A6888239B00D05840
:10523000582300228021FDF7B3FB7A6888239B0066
:10524000D05880235B0000228121FDF7A9FB0023B9
:105250001800BD4602B080BD80030020005C004005
:10526000F0B585B000AF78600F217B1800221A706E
:105270000E26BB1900221A707A6888239B00D35827
:105280000D007C181800FBF7AFFB03002370BC195E
:1052900029007B181B78180000F0ABF9030023707D
:1052A000BB191B781800BD4605B0F0BDF0B585B040
:1052B00000AF78600C0010001900FB1C221C1A7053
:1052C000BB1C021C1A703B000A1C1A800F26BB195B
:1052D00000221A700E257B1900221A707A68882322
:1052E0009B00D058BC19BB1C1D783B001A88FB1CC6
:1052F00019782B00FBF7E6FC030023700E257C19C0
:10530000BB191B78180000F074F9030023707B1997
:105310001B781800BD4605B0F0BDF0B585B000AFF4
:1053200078600A00FB1C1A700F217B1800221A708B
:105330000E26BB1900221A707A6888239B00D25867
:105340000D007C18FB1C1B7819001000FCF756F8A8
:1053500003002370BC1929007B181B78180000F08B
:1053600048F903002370BB191B781800BD4605B02F
:10537000F0BDF0B585B000AF78600A00FB1C1A7074
:105380000F217B1800221A700E26BB1900221A70FA
:105390007A6888239B00D2580D007C18FB1C1B7870
:1053A00019001000FCF760FD03002370BC192900F0
:1053B0007B181B78180000F01CF903002370BB1940
:1053C0001B781800BD4605B0F0BDF0B585B000AF44
:1053D00078600A00FB1C1A700F217B1800221A70DB
:1053E0000E26BB1900221A707A6888239B00D258B7
:1053F0000D007C18FB1C1B7819001000FCF7EAFD5F
:1054000003002370BC1929007B181B78180000F0DA
:10541000F0F803002370BB191B781800BD4605B0D7
:10542000F0BD80B584B000AF78600A00FB1C1A7034
:105430007A6888239B00D358FB60FB1C1B785BB207
:10544000002B0DDAFB1C1B787F221A40F9682A20FA
:105450001300DB009B1A9B00CB181B181B780DE078
:10546000FB1C1B787F221A40F86885235900130023
:10547000DB009B1A9B00C3185B181B781800BD4605
:1054800004B080BDF0B585B000AF78600A00FB1CA9
:105490001A700F217B1800221A700E26BB190022E9
:1054A0001A707A6888239B00D2580D007C18FB1C68
:1054B0001B7819001000FBF7D7FB03002370BC1901
:1054C00029007B181B78180000F093F80300237064
:1054D000BB191B781800BD4605B0F0BDF0B587B00C
:1054E00000AFF86008007A6019000B23FB18021C5B
:1054F0001A7008243B190A1C1A8017217B180022F5
:105500001A7016257B1900221A70FA6888239B00EE
:10551000D0583B191D880E007C187A680B23FB18A5
:1055200019782B00FCF7E6FA0300237016257C1986
:1055300031007B181B78180000F05BF80300237023
:105540007B191B781800BD4607B0F0BDF0B587B0D9
:1055500000AFF86008007A6019000B23FB18021CEA
:105560001A7008243B190A1C1A8017217B18002284
:105570001A7016257B1900221A70FA6888239B007E
:10558000D0583B191D880E007C187A680B23FB1835
:1055900019782B00FCF730F90300237016257C19CD
:1055A00031007B181B78180000F023F803002370EB
:1055B0007B191B781800BD4607B0F0BD80B582B0DE
:1055C00000AF7860024B1800BD4602B080BDC046F7
:1055D0002C01002080B582B000AF7860C046BD4687
:1055E00002B080BD80B500AFFFF796FBC046BD4658
:1055F00080BD80B584B000AF0200FB1D1A700F2380
:10560000FB1800221A70FB1D1B78012B0DD002DC49
:10561000002B05D018E0022B0CD0032B0FD013E089
:105620000F23FB1800221A7013E00F23FB1802222D
:105630001A700EE00F23FB1801221A7009E00F23E5
:10564000FB1802221A7004E00F23FB1802221A70C2
:10565000C0460F23FB181B781800BD4604B080BD60
:1056600080B582B000AF02003960FB1D1A703B6844
:1056700012221A80024B1800BD4602B080BDC046FF
:10568000D800002080B582B000AF02003960FB1D59
:105690001A703B6804221A80024B1800BD4602B003
:1056A00080BDC046EC00002080B582B000AF020093
:1056B0003960FB1D1A70FB1D1B78002B06D13A6860
:1056C0000849094B1800FFF724F805E03A68054936
:1056D000054B1800FFF71DF8024B1800BD4602B03D
:1056E00080BDC046A00500209C59000880B582B04E
:1056F00000AF02003960FB1D1A703A680449054B7F
:105700001800FFF706F8024B1800BD4602B080BD36
:10571000A0050020B059000880B582B000AF02009B
:105720003960FB1D1A703B681A221A8000F04CF891
:10573000024B1800BD4602B080BDC046F0000020FC
:1057400080B582B000AF02003960FB1D1A70FB1DEE
:105750001B78002B06D13A680849094B1800FEF760
:10576000D8FF05E03A680549054B1800FEF7D1FF60
:10577000024B1800BD4602B080BDC046A005002007
:10578000C459000880B582B000AF02003960FB1D2B
:105790001A70FB1D1B78002B06D13A680849094B8B
:1057A0001800FEF7B6FF05E03A680549054B1800FA
:1057B000FEF7AFFF024B1800BD4602B080BDC046E9
:1057C000A0050020D059000880B584B000AF104B70
:1057D0001B68FB600F4B1B68BB600F4B1B687B603B
:1057E000FA687B68D318FB60FB68002B0BD00B4971
:1057F000FB680822180000F015F80949BB6804226C
:10580000180000F00FF8C046BD4604B080BDC04689
:10581000ACF7FF1FB0F7FF1FB4F7FF1FF200002027
:105820000201002080B586B000AFF860B960FB1DB2
:105830001A7017217B1800221A707B1800221A7028
:105840002FE0FB681B0F092B0DD8FB681B0FDAB28A
:105850001723FB181B785B001900BB685B183032FC
:10586000D2B21A700CE0FB681B0FDAB21723FB18D8
:105870001B785B001900BB685B183732D2B21A7014
:10588000FB681B01FB6017217B181B785B00013351
:10589000BA68D31800221A707B181A787B18013264
:1058A0001A701723FA18FB1D12781B789A42C8D376
:1058B000C046BD4606B080BD0D4885460D480E4920
:1058C0000E4A002302E0D458C4500433C4188C425A
:1058D000F9D30B4A0B4C002301E013600432A242BF
:1058E000FBD3FFF719FB00F011F8FFF7BBF9FEE758
:1058F00000400020000000200C0100206C5A00082D
:105900000C010020A0070020FEE7000070B5002673
:105910000C4D0D4C641BA410A64209D1002600F0CA
:1059200021F80A4D0A4C641BA410A64205D170BD93
:10593000B300EB5898470136EEE7B300EB589847B1
:105940000136F2E7645A0008645A0008645A0008F5
:10595000685A000803001218934200D1704719706A
:105960000133F9E7F8B5C046F8BC08BC9E4670475D
:0C597000F8B5C046F8BC08BC9E46704765
:10597C0002030405060708090A0B0C0D0E0F101084
:10598C000102030405060708090A0B0C0D0E0F1083
:10599C0057796B75727769737479204E756D706178
:1059AC006400000053544D6963726F656C656374D9
:1059BC00726F6E696373000048494420436F6E66D2
:1059CC006967000048494420496E746572666163DA
:1059DC00650000002C3E0008483E0008563E0008BA
:1059EC003A3E0008563E0008023E0008F43D00080E
:1059FC00563E00081E3E0008103E0008DA42000821
:105A0C004641000862410008AA410008DA42000839
:105A1C00DA42000876420008A4420008BE410008A1
:105A2C00DA410008F6410008124200082E42000834
:105A3C004A420008864B0008A44B0008C24B0008E1
:105A4C00E04B0008FE4B00080000000000000000C6
:085A5C0001020304060708091A
:045A6400E90000084D
:045A6800C100000871
:105A6C002136000883360008C93600080000000003
:105A7C000000000065380008000000000000000075
:105A8C0000000000000000004938000849380008F8
:105A9C00493800088938000809022200010100E099
:105AAC003209040000010301010009211101000168
:105ABC00222D000705810304000A000009211101B1
